:02000002B0004C
:1040000000400B00AC540B00000006000C00050241
:084010000401E50C00000000B2
:04401800C8510B0080
:10401C0009480A49884208B505D0094A824202D0AB
:10402C00121A01F019F80748074A0021121A01F078
:10403C0021F8014808BD00BF3CE6032018540B00D2
:10404C00A8E60320A8E60320EDE7032070B5074E91
:10405C00074C00F0ADFEA41BA4080025AC4200D117
:10406C0070BD56F8043B98470135F7E7C0530B0079
:10407C00E4530B0000F030B808B500F053F8BDE87D
:10408C00084000F04DBE00F0ADBA00F0B3BA0078B5
:10409C00B0FA80F04009704701230370704770B587
:1040AC0005460C46164642B90368C9B29B68984748
:1040BC002846BDE8704000F0A6BC00290ADA0A2A9E
:1040CC0008D12D2100F09CFC6142F2B2284600F090
:1040DC00A6FCEDE72146F8E708B50021022000F028
:1040EC00D7FE0021032000F0D3FE0021042000F0B5
:1040FC00CFFE0121052000F0CBFE0121062000F0AF
:10410C00C7FE0121072000F0C3FE00210E2000F0A5
:10411C00BFFE00F07FFDBDE808404FF4165100F0E3
:10412C006DBD00002DE9F043022085B000F0C1FE0A
:10413C008146032000F0BDFE8046042000F0B9FE4D
:10414C0007460E2000F0C8FEFF23009300231946FB
:10415C0040F6FF7200F066FA374E384D384CB9F124
:10416C00010F01BF002386F800902B702370B8F16B
:10417C00010F014639D10023012F337085F80080DF
:10418C00237047D1002333702B70012323702378C5
:10419C0063B10720039100F0B6FE00F03BFD0399DC
:1041AC000A22FFF77CFFC82000F048FAB9F1010F92
:1041BC003FD1B8F1010F3CD1012F3AD1002105209C
:1041CC0000F0A1FE0021062000F09DFE002107203A
:1041DC0000F099FE00234FF47A7033702B7023702B
:1041EC0005B0BDE8F04300F029BA012FCAD03378EE
:1041FC006BB10390052000F086FE00F00BFD0399D7
:10420C000A22FFF74CFFC82000F018FA03992B780C
:10421C00002BBCD00620039100F075FE00F0FAFCD8
:10422C0003990A22FFF73BFFC82000F007FA039915
:10423C00ADE705B0BDE8F083B6E60320B5E6032094
:10424C00B4E6032010B5074B074A9A600024C3E973
:10425C000044032000F032F921460120BDE8104053
:10426C0000F03CB9A8E603200000FFFF08B5024BA4
:10427C001B685B6C019308BD4802030008B5024B38
:10428C001B685B68019308BD1802030008B5024B5C
:10429C001B685B69019308BD1802030008B5024B4B
:1042AC001B685B68019308BD2C02030008B5024B28
:1042BC001B689B68019308BD2C02030008B5024BD8
:1042CC001B68DB68019308BD2C02030008B5024B88
:1042DC001B685B69019308BD2C02030008B5024BF7
:1042EC001B689B6A019308BD2C02030008B5024BA6
:1042FC001B681B6B019308BD2C02030008B5024B15
:10430C001B689B6F019308BD2C02030008B5024B80
:10431C001B681B6A019308BD2802030008B5024BF9
:10432C001B685B6A019308BD2802030008B5024BA9
:10433C001B689B6A019308BD2802030008B5024B59
:10434C001B68DB6A019308BD2802030008B5024B09
:10435C001B681B6B019308BD2802030008B5024BB8
:10436C001B685B6B019308BD2802030008B5024B68
:10437C001B681B6C019308BD2802030008B5024B97
:10438C001B685B69019308BD6402030008B5024B0E
:10439C001B689B68019308BD6802030008B5024BBB
:1043AC001B68DB68019308BD6802030008B5024B6B
:1043BC001B68DB69019308BD3002030008B5024B92
:1043CC001B681B6A019308BD3002030008B5024B41
:1043DC001B68DB68019308BD3C02030008B5024B67
:1043EC001B681B69019308BD3C02030008B5024B16
:1043FC001B685B69019308BD3C02030008B5024BC6
:10440C001B689B69019308BD3C02030008B5024B75
:10441C001B68DB69019308BD3C02030008B5024B25
:10442C001B681B6A019308BD3C02030008B5024BD4
:10443C001B689B6A019308BD3C02030008B5024B44
:10444C001B681B6C019308BD3C02030008B5024BB2
:10445C001B681B68019308BD4C02030008B5024B96
:10446C001B685B68019308BD4C02030008B5024B46
:10447C001B681B69019308BD4C02030008B5024B75
:10448C001B685B69019308BD4C02030008B5024B25
:10449C001B689B69019308BD4C02030008B5024BD5
:1044AC001B68DB69019308BD4C02030008B5024B85
:1044BC001B681B6A019308BD4C02030008B5024B34
:1044CC001B685B68019308BD2002030008B5024B12
:1044DC001B685B69019308BD2002030008B5024B01
:1044EC001B68DB6A019308BD2002030008B5034B6F
:1044FC001B68D3F88830019308BD0000200203002C
:10450C0008B5034B1B68D3F89430019308BD000029
:10451C002002030008B5024B1B68DB6B019308BD3E
:10452C004402030008B5024B1B685B68019308BD8D
:10453C004002030008B5024B1B689B68019308BD41
:10454C004002030008B5024B1B68DB68019308BDF1
:10455C004002030008B5024B1B681B69019308BDA0
:10456C004002030008B5024B1B685B69019308BD50
:10457C004002030008B5024B1B689B69019308BD00
:10458C004002030008B5024B1B68DB69019308BDB0
:10459C004002030008B5024B1B681B6A019308BD5F
:1045AC004002030008B5024B1B681B6B019308BD4E
:1045BC004002030008B5024B1B685B6B019308BDFE
:1045CC004002030008B5024B1B681B6C019308BD2D
:1045DC004002030008B5024B1B685B6C019308BDDD
:1045EC004002030008B5024B1B681B68019308BD11
:1045FC001C02030008B5024B1B685B68019308BDE5
:10460C001C02030008B5024B1B681B6C019308BD10
:10461C001C02030008B5024B1B685B6C019308BDC0
:10462C001C0203008A4210B507D0441A0298C01A23
:10463C004443501A94FBF0F0184410BD0021FFF7CE
:10464C0045BF0000024800230360FFF70FBE00BF08
:10465C00B8E60320002240681146FFF79BBF0022FA
:10466C0040681146FFF7A6BF40680022FFF79ABFCB
:10467C004068002281F00101FFF784BF00234068ED
:10468C001A461946FFF776BF002340681A461946AA
:10469C00FFF768BF002240681146FFF75BBF00229E
:1046AC0040681146FFF746BF406800220221FFF721
:1046BC0049BF002340681A46FFF734BF024B032260
:1046CC005A60024A1A607047BCE60320E4510B00A2
:1046DC007047F8B5064615460C468F18BC4206D0F6
:1046EC00336814F8011B9B6830469847F6E7284658
:1046FC00F8BD007C0022FFF709BE007C0021FFF70B
:10470C000DBE007C0021FFF711BE007C0021FFF7DD
:10471C0015BE007C0021FFF719BE10B5142104460C
:10472C00FFF7B3FC204610BD10B54FF47A73044666
:10473C0008460021C4E90113034B23602074114681
:10474C00FFF714FE204610BD20520B00704710B529
:10475C0018210446FFF799FC204610BDF0B5037DE7
:10476C00062B8DB00E4600F104074FF0000412D05A
:10477C0000F1080515F8011D0A22304600F04FF92A
:10478C00AF42044419D0002CF4D02E21304600F056
:10479C0037F90444EEE72F236A4639460A208DF890
:1047AC000040FFF7EBFD684600F09AFC33680246C8
:1047BC00DB68694630469847044620460DB0F0BD8C
:1047CC0010B5054B0446112240F8043B002100F0C3
:1047DC0051FC204610BD00BF48520B000346074A4F
:1047EC0010B543F8042B01F1100251F8044B43F8B7
:1047FC00044B9142F9D10A781A7010BD48520B0043
:10480C0010B59DF8084044EA032343EA024242EA09
:10481C00016104234160037510BD000007B5064B10
:10482C000360CB7800938B784A780978FFF7E8FF20
:10483C0003B05DF804FB00BF48520B00014B024A69
:10484C001A607047C4E6032054520B0000234068E2
:10485C001A46FFF767BE406800220221FFF772BEBE
:10486C00002240681146FFF765BE002240681146E1
:10487C00FFF770BE002340681A461946FFF772BE58
:10488C00002340681A461946FFF774BE40680021A1
:10489C00FFF798BE40680021FFF79CBE40680022DD
:1048AC0081F00101FFF76EBE40680022FFF77ABE6F
:1048BC00002240681146FFF77DBE00224068114679
:1048CC00FFF768BE2DE9F04395B014460D46074638
:1048DC00FFF776FF00211C220DA8009100F0CAFB07
:1048EC0040230C9320466B460CAA0021FFF756FD83
:1048FC00044600284BD1024601216868FFF72AFEC6
:10490C000221804622466868FFF724FE009E8146FD
:10491C002146002E3BD0002939D17368022B03D0DD
:10492C000A2B11D0F669F4E7B8F1000FFAD07169CF
:10493C0006A8043107ADFFF771FF0FCD3C1D0FC466
:10494C002B6823704146EDE7B9F1000FEAD074698A
:10495C00102201A800F08EFB06238DF8143001AD57
:10496C0004F108031834186859682A4603C208333E
:10497C00A3421546F7D101A906A807ADFFF72EFFF4
:10498C000FCD3C1D0FC42B6823704946CAE7009815
:10499C00FFF7FCFC384615B0BDE8F083024B034A28
:1049AC001A6000225A607047C8E6032060520B0060
:1049BC00F8B506460D468F180024BD420CD033685E
:1049CC0015F8011B9B6830469847031E01DB1C44FD
:1049DC00F3E7002C08BF1C462046F8BD13B504466F
:1049EC00084659B1019100F07BFB23680199DB6803
:1049FC000246204602B0BDE81040184702B010BD78
:104A0C0003689B68184738B50D210546FFF7F8FF7A
:104A1C000A2104462846FFF7F3FF204438BD30B581
:104A2C008BB00023012A8DF8243098BF0A2209ACE0
:104A3C000D46B1FBF2F101FB125303F0FF03092BFE
:104A4C0094BF30333733DBB2AA4204F8013DEFD9BF
:104A5C002146FFF7C3FF0BB030BD0000014B002215
:104A6C009A607047D0E6032010B5044608462170C2
:104A7C00FFF79CFC00236360204610BD054B02220F
:104A8C001A60054B054A9A600020C3E90000FFF745
:104A9C0015BD00BFECE60320E0E603200000FFFF9D
:104AAC00024B1A68024B1A60704700BF3CE60320A9
:104ABC00F0E6032070474174704708B5007CFFF79F
:104ACC00B5FC20EAE07008BD08B5007CFFF786FC59
:104ADC0020EAE07008BD08B5007CFFF78FFC40EAC7
:104AEC00E07008BD08B5007CFFF780FC40EAE07080
:104AFC0008BD007CFFF78ABC37B5457C04462DB158
:104B0C00207C03B0BDE83040FFF760BC007C019115
:104B1C00FFF78CFC00280199F2DC284603B030BD6D
:104B2C0010B514210446FFF7B0FA204610BD000062
:104B3C0010B54FF47A730446084611460022C4E9B6
:104B4C000123044B2360012320746374FFF776FC6C
:104B5C00204610BDB8520B00417470477047704727
:104B6C0008B50021007CFFF791FC40EAE07008BD1D
:104B7C0008B50121007CFFF789FC40EAE07008BD14
:104B8C0008B5007CFFF77AFC20EAE07008BD08B598
:104B9C00007CFFF76BFC20EAE07008BD13B50446FF
:104BAC00007C0191FFF76AFC0028019901DC607C14
:104BBC0020B1207CFFF772FC20EAE07002B010BD3F
:104BCC00007CFFF773BC10B514210446FFF75DFAA7
:104BDC00204610BD10B54FF47A73044608460021E8
:104BEC00C4E90113044B2360012320746374114640
:104BFC00FFF72CFC204610BDE8520B00007C002275
:104C0C00FFF72CBC10B514220446002100F032FA38
:104C1C00204610BD10B50F4C88B003A8FFF7F2FF6B
:104C2C002178BFF35B8F11F001010FD12046019168
:104C3C00FFF72DFA019948B103AA0748FFF7CAFFFD
:104C4C002046FFF729FA054800F000FA024808B0A0
:104C5C0010BD00BFF4E60320F8E60320694B0B00FF
:104C6C00002240681146FFF775BC002240681146CF
:104C7C00FFF790BC002240681146FFF79BBC4068D0
:104C8C000022FFF78FBC4068002281F00101FFF782
:104C9C0079BC002340681A461946FFF76BBC002309
:104CAC0040681A461946FFF75DBC00224068114661
:104CBC00FFF740BC406800220221FFF743BC0023F1
:104CCC0040681A46FFF72EBC024B04225A60024A77
:104CDC001A6070470CE7032018530B00014B186047
:104CEC00704700BF40E6032008B50B4B43B1FFF7FC
:104CFC0091FF03681B699847002801DDAFF3008022
:104D0C00064B43B100F07CF903681B6998470028F7
:104D1C0001DDAFF3008008BD0000000000000000C2
:104D2C0008B5FFF7E1FFFFF7B1FA014B186008BDBA
:104D3C0028E703200548064A064908B5121A00F070
:104D4C008BF9054B054A1A6008BD00BF00F403201F
:104D5C0004F4032014540B0000F403201E1C279AA7
:104D6C0007B5002300931A466FF07701FFF7C8FBD5
:104D7C0003B05DF804FB000007B543880A2B08D08C
:104D8C00502B0BD1094B1B684BB103B05DF804EBF6
:104D9C001847FFF7E5FF03B05DF804FB0023009311
:104DAC001A466FF07701FFF7ABFBF4E718E7032027
:104DBC0010B512480021FFF72DFC114B1A68114B4E
:104DCC009A42114B0CBF012200221A7001D0FFF73E
:104DDC00B1FFFFF753FA044600F054F90B4B13B133
:104DEC002046AFF3008000210848FFF793FBBDE895
:104DFC00104007480021FFF779BB00BFE94C0B00BE
:104E0C0000F403201E1C279A14E703200000000066
:104E1C00854D0B00232813B502D9002002B010BD1C
:104E2C00A0F10B03022B1AD8174C2178BFF35B8F20
:104E3C0011F001010BD120460191FFF728F90199DE
:104E4C0028B11248FFF710FE2046FFF725F90F4B4B
:104E5C001878FFF7B3FA0028DFD10120DEE701282C
:104E6C0009D800F08DF80021007CFFF777FA80F06C
:104E7C000100C0B2D2E709380128EED800F0C0F822
:104E8C00007CFFF7CBFAF2E71CE7032020E70320B6
:104E9C00232838B504460D460AD8FF2908D0FFF759
:104EAC00B9FF28B129462046BDE83840FFF7FEB9C6
:104EBC0038BD10B50446FFF701FA031FDBB2012B16
:104ECC0008D92046FFF7A6FF20B12046BDE81040C8
:104EDC00FFF7FCB9002010BD0D2810B504469CBF8F
:104EEC000E34A4B22046FFF795FF50B103212046A3
:104EFC00FFF7D4F9032804D12046BDE81040FFF792
:104F0C00F5B9002010BD38B504460D46FFF782FFF9
:104F1C00F0B104212046FFF7C1F9042805D1A9B24C
:104F2C002046BDE83840FFF7D9B902212046FFF7EB
:104F3C00B5F902280CD12046FFF7C0F9012801D0A1
:104F4C00042805D129462046BDE83840FFF7D6B9DC
:104F5C0038BD704738B5202514230446036085609E
:104F6C0005610649284600F06FF804496060284640
:104F7C0000F06AF8E060204638BD00BF4C530B00CF
:104F8C0030B50E4D2978BFF35B8F11F0010487B05B
:104F9C0011D12846FFF77BF868B101A8FFF7DAFFBB
:104FAC0001AA21460648FFF7BFFB2846FFF774F815
:104FBC00044800F04BF8024807B030BD2CE7032042
:104FCC0030E703205F4F0B007047000038B50446F4
:104FDC0014252A46002100F04DF82580402507496C
:104FEC0025812846258200F02FF804496060284668
:104FFC0000F02AF8E060204638BD00BF4C530B008F
:10500C0030B50E4D2978BFF35B8F11F0010487B0DA
:10501C0011D12846FFF73BF868B101A8FFF7D6FF7E
:10502C0001AA21460648FFF783FD2846FFF734F80E
:10503C00044800F00BF8024807B030BD44E70320E9
:10504C0048E70320D54F0B00FFF71DB8002301469E
:10505C001A46184600F04CB80A44914200F1FF334E
:10506C0000D1704710B511F8014B03F8014F914274
:10507C00F9D110BD02440346934200D1704703F8A6
:10508C00011BF9E738B5104B1D68AB6B0446B3B97F
:10509C001820FFF7A7FA0246A86320B90B4B0C485F
:1050AC004221FFF7AFFA0B490B4BC0E900130B4B36
:1050BC0083600B23838100210120C2E90401AB6BC7
:1050CC0000221C615A6138BD40E603204D530B0091
:1050DC0064530B000E33CDAB34126DE6ECDE0500E1
:1050EC00034613F8012B002AFBD1181A013870471C
:1050FC002DE9F843DFF8B8800646D8F800001F46C3
:10510C000D46914600F056F8254B1C6834B9254CD9
:10511C001C60254B13B11B68C4F8883063681F2BC7
:10512C0007DDD8F8000000F047F84FF0FF30BDE87D
:10513C00F8834EB3D4F8880088B91C4B23B9D8F83F
:10514C00000000F038F8F0E74FF48470FFF74AFAEB
:10515C000028F4D00023C0E94033C4F88800636809
:10516C0040F8239001229A4000EB8301D0F80031E3
:10517C001343C0F80031022EC1F8807002BFD0F882
:10518C0004311343C0F804316368D8F800005A1C8A
:10519C000233626044F8235000F00EF80020C6E79A
:1051AC00E8E703205CE7032000000000F1450B005A
:1051BC00A4E6032070477047704700001D400B00A9
:1051CC0059400B0081400B0085400B000000000093
:1051DC000000000000000000BF460B00B5460B00AD
:1051EC00AB460B00A1460B0095460B0089460B0005
:1051FC0099480B00A1480B007D460B0075460B002F
:10520C006B460B0061460B00D1480B000000000000
:10521C0000000000DD460B0027470B00FF460B008B
:10522C00DF460B0007470B000F470B0017470B001F
:10523C001F470B00000000000000000069470B0036
:10524C0059470B005B470B006170700000000000B9
:10525C000000000059480B0063480B006D480B0020
:10526C0077480B0081480B008D480B0099480B00C8
:10527C00A1480B00A9480B00B5480B00BD480B001A
:10528C00C7480B00D1480B0025592D256D2D2564E1
:10529C005425483A254D3A2553257A006173637499
:1052AC00696D65000000000000000000C14A0B00A1
:1052BC002D4B0B00054B0B00BD490B00D54A0B00C9
:1052CC00F14A0B00E34A0B00FF4A0B00C34A0B00E8
:1052DC00C74A0B0000000000000000006B4B0B00E5
:1052EC00D34B0B00A94B0B00BD490B009B4B0B0088
:1052FC006D4B0B007D4B0B00CD4B0B008D4B0B0006
:10530C00654B0B000000000000000000CB4C0B00B4
:10531C00C14C0B00B74C0B006D4C0B00AB4C0B0095
:10532C009F4C0B0099480B00A1480B00934C0B00B1
:10533C008B4C0B00814C0B00774C0B00D1480B00B5
:10534C00005245454E54206D616C6C6F6320737533
:10535C0063636565646564002F746D702F6A656E98
:10536C006B696E732D4743432D31302D7069706519
:10537C006C696E652D34385F3230323031313234F5
:10538C005F313630363138303633392F7372632F04
:10539C006E65776C69622F6E65776C69622F6C69CC
:1053AC0062632F7374646C69622F72616E642E6316
:1053BC000000000051420B0051460B00C9460B0087
:1053CC0049480B00A9490B00694A0B00894A0B009C
:1053DC00AD4A0B00D54C0B00000000000000000093
:0453EC0000000000BD
:1053F000040000001400000003000000474E5500A8
:105400005FD44D243A3005B07F2CE03F293EF83977
:04541000B2F89C044E
:045414000000000094
:10541800A8520B0044E60320000000000000000032
:105428000000000000000000000000000000000074
:105438000000000000000000000000000000000064
:105448000000000000000000000000000000000054
:105458000000000000000000000000000000000044
:105468000000000000000000000000000000000034
:0C5478000000000000000000ECE7032032
:10548400FFFFFFFF00000102030405060708090AE5
:105494000B0C0D0E0F101112131415161718191AE0
:0854A4001B1C1D1E1F20280027
:0454AC0078563412E8
:04000003B000401CED
:00000001FF
