:02000002B0004C
:1040000000400B007C520B00000006000C00050273
:084010000401E50C00000000B2
:044018009C4F0B00AE
:10401C0009480A49884208B505D0094A824202D0AB
:10402C00121A00F003FF0748074A0021121A00F089
:10403C000BFF014808BD00BF40E60320E8510B0010
:10404C00ACE60320ACE60320EDE7032070B5074E89
:10405C00074C00F0BBFDA41BA4080025AC4200D10A
:10406C0070BD56F8043B98470135F7E794510B00A7
:10407C00B8510B0000F013B808B500F021F8BDE8FA
:10408C00084000F05BBD00F0D7B900F0DDB9007856
:10409C00B0FA80F04009704701230370704708B5EF
:1040AC000021022000F002FE0121052000F0FEFD9F
:1040BC0000F0BEFCBDE808404FF4165100F0ACBC5B
:1040CC0008B5022000F01CFE014600B10121BDE83C
:1040DC000840052000F0FBBD10B5074B074A9A605D
:1040EC000024C3E90044032000F01AF92146012002
:1040FC00BDE8104000F01CB9ACE603200000FFFF47
:10410C0008B5024B1B685B6C019308BD48020300A9
:10411C0008B5024B1B685B68019308BD18020300CD
:10412C0008B5024B1B685B69019308BD18020300BC
:10413C0008B5024B1B689B68019308BD2C02030059
:10414C0008B5024B1B68DB68019308BD2C02030009
:10415C0008B5024B1B681B69019308BD2C020300B8
:10416C0008B5024B1B685B69019308BD2C02030068
:10417C0008B5024B1B681B6A019308BD280203009B
:10418C0008B5024B1B685B6A019308BD280203004B
:10419C0008B5024B1B689B6A019308BD28020300FB
:1041AC0008B5024B1B68DB6A019308BD28020300AB
:1041BC0008B5024B1B681B6B019308BD280203005A
:1041CC0008B5024B1B685B6B019308BD280203000A
:1041DC0008B5024B1B681B6C019308BD2802030039
:1041EC0008B5024B1B685B69019308BD64020300B0
:1041FC0008B5024B1B689B68019308BD680203005D
:10420C0008B5024B1B68DB68019308BD680203000C
:10421C0008B5024B1B68DB69019308BD3002030033
:10422C0008B5024B1B681B6A019308BD30020300E2
:10423C0008B5024B1B68DB68019308BD3C02030008
:10424C0008B5024B1B681B69019308BD3C020300B7
:10425C0008B5024B1B685B69019308BD3C02030067
:10426C0008B5024B1B689B69019308BD3C02030017
:10427C0008B5024B1B68DB69019308BD3C020300C7
:10428C0008B5024B1B681B6A019308BD3C02030076
:10429C0008B5024B1B689B6A019308BD3C020300E6
:1042AC0008B5024B1B681B6C019308BD3C02030054
:1042BC0008B5024B1B681B68019308BD4C02030038
:1042CC0008B5024B1B685B68019308BD4C020300E8
:1042DC0008B5024B1B681B69019308BD4C02030017
:1042EC0008B5024B1B685B69019308BD4C020300C7
:1042FC0008B5024B1B689B69019308BD4C02030077
:10430C0008B5024B1B68DB69019308BD4C02030026
:10431C0008B5024B1B681B6A019308BD4C020300D5
:10432C0008B5024B1B685B68019308BD20020300B3
:10433C0008B5024B1B68DB6A019308BD2002030021
:10434C0008B5034B1B68D3F88830019308BD0000F7
:10435C002002030008B5034B1B68D3F8943001937B
:10436C0008BD00002002030008B5024B1B68DB6B84
:10437C00019308BD4402030008B5024B1B685B683F
:10438C00019308BD4002030008B5024B1B689B68F3
:10439C00019308BD4002030008B5024B1B68DB68A3
:1043AC00019308BD4002030008B5024B1B681B6952
:1043BC00019308BD4002030008B5024B1B685B6902
:1043CC00019308BD4002030008B5024B1B689B69B2
:1043DC00019308BD4002030008B5024B1B68DB6962
:1043EC00019308BD4002030008B5024B1B681B6A11
:1043FC00019308BD4002030008B5024B1B681B6B00
:10440C00019308BD4002030008B5024B1B685B6BAF
:10441C00019308BD4002030008B5024B1B681B6CDE
:10442C00019308BD4002030008B5024B1B685B6C8E
:10443C00019308BD4002030008B5024B1B681B68C2
:10444C00019308BD1C02030008B5024B1B685B6896
:10445C00019308BD1C02030008B5024B1B681B6CC2
:10446C00019308BD1C02030008B5024B1B685B6C72
:10447C00019308BD1C020300024800230360FFF7F0
:10448C003FBE00BFB8E60320002240681146FFF78C
:10449C00ABBF002240681146FFF7B6BF4068002250
:1044AC00FFF7AABF4068002281F00101FFF794BF1B
:1044BC00002340681A461946FFF786BF0023406860
:1044CC001A461946FFF778BF002240681146FFF7DD
:1044DC006BBF002240681146FFF756BF40680022B0
:1044EC000221FFF759BF002340681A46FFF744BF6B
:1044FC00024B03225A60024A1A607047BCE6032042
:10450C00B84F0B007047F8B5064615460C468F1889
:10451C00BC4206D0336814F8011B9B6830469847A0
:10452C00F6E72846F8BD007C0022FFF721BE007C90
:10453C000021FFF725BE007C0021FFF729BE007C7F
:10454C000021FFF72DBE007C0021FFF731BE10B516
:10455C0014210446FFF799FD204610BD10B54FF409
:10456C007A73044608460021C4E90113034B236007
:10457C0020741146FFF72CFE204610BDF44F0B00A3
:10458C00704710B518210446FFF77FFD204610BD7B
:10459C00F0B5037D062B8DB00E4600F104074FF0ED
:1045AC00000412D000F1080515F8011D0A2230464E
:1045BC0000F043F9AF42044419D0002CF4D02E2162
:1045CC00304600F037F90444EEE72F236A463946AB
:1045DC000A208DF80040FFF703FE684600F06AFCE5
:1045EC0033680246DB6869463046984704462046E5
:1045FC000DB0F0BD10B5054B0446112240F8043B3C
:10460C00002100F021FC204610BD00BF1C500B0007
:10461C000346074A10B543F8042B01F1100251F878
:10462C00044B43F8044B9142F9D10A781A7010BD2F
:10463C001C500B0010B59DF8084044EA032343EAD4
:10464C00024242EA016104234160037510BD00007F
:10465C0007B5064B0360CB7800938B784A780978C2
:10466C00FFF7E8FF03B05DF804FB00BF1C500B0024
:10467C00014B024A1A607047C4E6032028500B0015
:10468C00002340681A46FFF777BE406800220221DB
:10469C00FFF782BE002240681146FFF775BE00226C
:1046AC0040681146FFF780BE002340681A46194641
:1046BC00FFF782BE002340681A461946FFF784BEF6
:1046CC0040680021FFF7A8BE40680021FFF7ACBE90
:1046DC004068002281F00101FFF77EBE4068002295
:1046EC00FFF78ABE002240681146FFF78DBE0022FC
:1046FC0040681146FFF778BE2DE9F04395B014469B
:10470C000D460746FFF776FF00211C220DA80091ED
:10471C0000F09AFB40230C9320466B460CAA002118
:10472C00FFF76EFD044600284BD102460121686854
:10473C00FFF73AFE0221804622466868FFF734FEF6
:10474C00009E81462146002E3BD0002939D173684A
:10475C00022B03D00A2B11D0F669F4E7B8F1000F45
:10476C00FAD0716906A8043107ADFFF771FF0FCDC0
:10477C003C1D0FC42B6823704146EDE7B9F1000FC7
:10478C00EAD07469102201A800F05EFB06238DF8B4
:10479C00143001AD04F108031834186859682A461E
:1047AC0003C20833A3421546F7D101A906A807ADE9
:1047BC00FFF72EFF0FCD3C1D0FC42B68237049460D
:1047CC00CAE70098FFF714FD384615B0BDE8F08332
:1047DC00024B034A1A6000225A607047C8E6032055
:1047EC0034500B00F8B506460D468F180024BD4218
:1047FC000CD0336815F8011B9B6830469847031E94
:10480C0001DB1C44F3E7002C08BF1C462046F8BD16
:10481C0013B50446084659B1019100F04BFB2368CF
:10482C000199DB680246204602B0BDE810401847EB
:10483C0002B010BD03689B68184730B58BB00023DD
:10484C00012A8DF8243098BF0A2209AC0D46B1FB21
:10485C00F2F101FB125303F0FF03092B94BF303329
:10486C003733DBB2AA4204F8013DEFD92146FFF7FA
:10487C00CFFF0BB030BD0000014B00229A60704797
:10488C00D0E6032010B5044608462170FFF7C0FCA3
:10489C0000236360204610BD054B02221A60054BB5
:1048AC00054A9A600020C3E90000FFF739BD00BF3C
:1048BC00ECE60320E0E603200000FFFF024B1A6841
:1048CC00024B1A60704700BF40E60320F0E603205D
:1048DC0070474174704708B5007CFFF7D9FC20EA9B
:1048EC00E07008BD08B5007CFFF7AAFC20EAE07078
:1048FC0008BD08B5007CFFF7B3FC40EAE07008BDCA
:10490C0008B5007CFFF7A4FC40EAE07008BD007C11
:10491C00FFF7AEBC37B5457C04462DB1207C03B007
:10492C00BDE83040FFF784BC007C0191FFF7B0FC80
:10493C0000280199F2DC284603B030BD10B51421D3
:10494C000446FFF7A2FB204610BD000010B54FF443
:10495C007A730446084611460022C4E90123044B2D
:10496C002360012320746374FFF79AFC204610BD6A
:10497C008C500B00417470477047704708B500218C
:10498C00007CFFF7B5FC40EAE07008BD08B50121DA
:10499C00007CFFF7ADFC40EAE07008BD08B5007C78
:1049AC00FFF79EFC20EAE07008BD08B5007CFFF71D
:1049BC008FFC20EAE07008BD13B50446007C019121
:1049CC00FFF78EFC0028019901DC607C20B1207C73
:1049DC00FFF796FC20EAE07002B010BD007CFFF7F8
:1049EC0097BC10B514210446FFF74FFB204610BDB1
:1049FC0010B54FF47A73044608460021C4E901133C
:104A0C00044B23600123207463741146FFF750FCA0
:104A1C00204610BDBC500B00007C0022FFF750BCA0
:104A2C0010B514220446002100F00EFA204610BDE9
:104A3C0010B50F4C88B003A8FFF7F2FF2178BFF335
:104A4C005B8F11F001010FD120460191FFF71FFB85
:104A5C00019948B103AA0748FFF7CAFF2046FFF7A0
:104A6C001BFB054800F0DCF9024808B010BD00BF84
:104A7C00F4E60320F8E6032085490B000022406889
:104A8C001146FFF791BC002240681146FFF7ACBC01
:104A9C00002240681146FFF7B7BC40680022FFF7C0
:104AAC00ABBC4068002281F00101FFF795BC0023EC
:104ABC0040681A461946FFF787BC002340681A461F
:104ACC001946FFF779BC002240681146FFF75CBC21
:104ADC00406800220221FFF75FBC002340681A46A1
:104AEC00FFF74ABC024B04225A60024A1A60704714
:104AFC000CE70320EC500B00014B1860704700BF13
:104B0C0044E6032008B50B4B43B1FFF791FF036854
:104B1C001B699847002801DDAFF30080064B43B1B9
:104B2C0000F058F903681B699847002801DDAFF3C2
:104B3C00008008BD000000000000000008B5FFF771
:104B4C00E1FFFFF7EDFA014B186008BD28E70320E1
:104B5C000548064A064908B5121A00F067F9054BD4
:104B6C00054A1A6008BD00BF00F4032004F40320BA
:104B7C00E4510B0000F403201E1C279A07B50023F8
:104B8C0000931A466FF07701FFF7E4FB03B05DF872
:104B9C0004FB000007B543880A2B08D0502B0BD11F
:104BAC00094B1B684BB103B05DF804EB1847FFF7DA
:104BBC00E5FF03B05DF804FB002300931A466FF089
:104BCC007701FFF7C7FBF4E718E7032010B512488D
:104BDC000021FFF749FC114B1A68114B9A42114BFB
:104BEC000CBF012200221A7001D0FFF7B1FFFFF7B2
:104BFC008FFA044600F030F90B4B13B12046AFF39B
:104C0C00008000210848FFF7AFFBBDE810400748C3
:104C1C000021FFF795BB00BF054B0B0000F40320F0
:104C2C001E1C279A14E7032000000000A14B0B0068
:104C3C00232813B502D9002002B010BDA0F10B033C
:104C4C00022B1AD8174C2178BFF35B8F11F001019E
:104C5C000BD120460191FFF71AFA019928B112489D
:104C6C00FFF710FE2046FFF717FA0F4B1878FFF7E7
:104C7C00D7FA0028DFD10120DEE7012809D800F09F
:104C8C0069F80021007CFFF79BFA80F00100C0B2AC
:104C9C00D2E709380128EED800F09CF8007CFFF729
:104CAC00EFFAF2E71CE7032020E70320232838B5AE
:104CBC0004460D460AD8FF2908D0FFF7B9FF28B1E2
:104CCC0029462046BDE83840FFF732BA38BD38B522
:104CDC0004460D46FFF734FAFF2810D0062804D8F6
:104CEC004D2323FA00F0C30709D42046FFF7A0FF99
:104CFC0028B129462046BDE83840FFF729BA38BD0F
:104D0C0010B50446FFF71CFA031FDBB2012B08D9C0
:104D1C002046FFF78DFF20B12046BDE81040FFF77D
:104D2C001FBA002010BD704738B520251423044647
:104D3C000360856005610649284600F06FF8044958
:104D4C006060284600F06AF8E060204638BD00BF7D
:104D5C0020510B0030B50E4D2978BFF35B8F11F04D
:104D6C00010487B011D12846FFF791F968B101A869
:104D7C00FFF7DAFF01AA21460648FFF7EFFB2846AA
:104D8C00FFF78AF9044800F04BF8024807B030BD31
:104D9C002CE7032030E70320334D0B007047000055
:104DAC0038B5044614252A46002100F04DF825801C
:104DBC004025074925812846258200F02FF8044913
:104DCC006060284600F02AF8E060204638BD00BF3D
:104DDC0020510B0030B50E4D2978BFF35B8F11F0CD
:104DEC00010487B011D12846FFF751F968B101A829
:104DFC00FFF7D6FF01AA21460648FFF7A7FD284674
:104E0C00FFF74AF9044800F00BF8024807B030BD30
:104E1C0044E7032048E70320A94D0B00FFF733B903
:104E2C00002301461A46184600F04CB80A44914239
:104E3C0000F1FF3300D1704710B511F8014B03F8A6
:104E4C00014F9142F9D110BD02440346934200D167
:104E5C00704703F8011BF9E738B5104B1D68AB6BB5
:104E6C000446B3B91820FFF7E7FA0246A86320B945
:104E7C000B4B0C484221FFF7EFFA0B490B4BC0E9E7
:104E8C0000130B4B83600B23838100210120C2E9AB
:104E9C000401AB6B00221C615A6138BD44E603204F
:104EAC0021510B0038510B000E33CDAB34126DE693
:104EBC00ECDE0500034613F8012B002AFBD1181A6F
:104ECC00013870472DE9F843DFF8B8800646D8F86A
:104EDC0000001F460D46914600F056F8254B1C6805
:104EEC0034B9254C1C60254B13B11B68C4F88830B1
:104EFC0063681F2B07DDD8F8000000F047F84FF06F
:104F0C00FF30BDE8F8834EB3D4F8880088B91C4B49
:104F1C0023B9D8F8000000F038F8F0E74FF48470AB
:104F2C00FFF78AFA0028F4D00023C0E94033C4F814
:104F3C008800636840F8239001229A4000EB8301BB
:104F4C00D0F800311343C0F80031022EC1F8807044
:104F5C0002BFD0F804311343C0F804316368D8F8A9
:104F6C0000005A1C0233626044F8235000F00EF823
:104F7C000020C6E7E8E703205CE703200000000000
:104F8C0045440B00A8E603207047704770470000AB
:104F9C001D400B0059400B0081400B0085400B005D
:104FAC00000000000000000000000000F3440B00B3
:104FBC00E9440B00DF440B00D5440B00C9440B0043
:104FCC00BD440B00CD460B00D5460B00B1440B0085
:104FDC00A9440B009F440B0095440B0005470B00A4
:104FEC00000000000000000011450B005B450B00A9
:104FFC0033450B0013450B003B450B0043450B00A1
:10500C004B450B0053450B00000000000000000056
:10501C009D450B008D450B008F450B00617070009A
:10502C0000000000000000008D460B0097460B00AE
:10503C00A1460B00AB460B00B5460B00C1460B005E
:10504C00CD460B00D5460B00DD460B00E9460B00A8
:10505C00F1460B00FB460B0005470B0025592D258F
:10506C006D2D25645425483A254D3A2553257A0053
:10507C0061736374696D650000000000000000003E
:10508C00DD480B0049490B0021490B00F1470B008F
:10509C00F1480B000D490B00FF480B001B490B009E
:1050AC00DF480B00E3480B0000000000000000008C
:1050BC0087490B00EF490B00C5490B00F1470B006A
:1050CC00B7490B0089490B0099490B00E9490B00C2
:1050DC00A9490B0081490B000000000000000000F2
:1050EC00E74A0B00DD4A0B00D34A0B00894A0B0040
:1050FC00C74A0B00BB4A0B00CD460B00D5460B0034
:10510C00AF4A0B00A74A0B009D4A0B00934A0B00B9
:10511C0005470B00005245454E54206D616C6C6F79
:10512C006320737563636565646564002F746D70CB
:10513C002F6A656E6B696E732D4743432D31302D8D
:10514C00706970656C696E652D34385F3230323041
:10515C00313132345F313630363138303633392FE5
:10516C007372632F6E65776C69622F6E65776C69ED
:10517C00622F6C6962632F7374646C69622F726145
:10518C006E642E6300000000E5400B0085440B00AC
:10519C00FD440B007D460B00DD470B0085480B00E2
:1051AC00A5480B00C9480B00F14A0B000000000099
:0451BC0000000000EF
:1051C000040000001400000003000000474E5500DA
:1051D000633621E834C2C3C8E0A6AEF3E9C06D2748
:0451E000ED88F083E3
:0451E40000000000C7
:1051E8007C500B0048E6032000000000000000008F
:1051F80000000000000000000000000000000000A7
:105208000000000000000000000000000000000096
:105218000000000000000000000000000000000086
:105228000000000000000000000000000000000076
:105238000000000000000000000000000000000066
:0C5248000000000000000000ECE7032064
:10525400FFFFFFFF00000102030405060708090A17
:105264000B0C0D0E0F101112131415161718191A12
:085274001B1C1D1E1F20280059
:04527C00785634121A
:04000003B000401CED
:00000001FF
